{
	"fileVerifier.sol": {
		"fileVerifier": {
			"abi": [
				{
					"inputs": [
						{
							"internalType": "bytes32",
							"name": "_fileHash",
							"type": "bytes32"
						}
					],
					"name": "addFile",
					"outputs": [
						{
							"internalType": "bool",
							"name": "",
							"type": "bool"
						}
					],
					"stateMutability": "nonpayable",
					"type": "function"
				},
				{
					"inputs": [
						{
							"internalType": "bytes32",
							"name": "_fileHash",
							"type": "bytes32"
						}
					],
					"name": "getFileOrigin",
					"outputs": [
						{
							"internalType": "address",
							"name": "",
							"type": "address"
						}
					],
					"stateMutability": "view",
					"type": "function"
				},
				{
					"inputs": [
						{
							"internalType": "address",
							"name": "_originAddress",
							"type": "address"
						},
						{
							"internalType": "bytes32",
							"name": "_fileHash",
							"type": "bytes32"
						}
					],
					"name": "verifyFileOrigin",
					"outputs": [
						{
							"internalType": "bool",
							"name": "",
							"type": "bool"
						}
					],
					"stateMutability": "view",
					"type": "function"
				}
			],
			"devdoc": {
				"kind": "dev",
				"methods": {},
				"version": 1
			},
			"evm": {
				"assembly": "    /* \"fileVerifier.sol\":57:982  contract fileVerifier {... */\n  mstore(0x40, 0x80)\n  callvalue\n  dup1\n  iszero\n  tag_1\n  jumpi\n  0x00\n  dup1\n  revert\ntag_1:\n  pop\n  dataSize(sub_0)\n  dup1\n  dataOffset(sub_0)\n  0x00\n  codecopy\n  0x00\n  return\nstop\n\nsub_0: assembly {\n        /* \"fileVerifier.sol\":57:982  contract fileVerifier {... */\n      mstore(0x40, 0x80)\n      callvalue\n      dup1\n      iszero\n      tag_1\n      jumpi\n      0x00\n      dup1\n      revert\n    tag_1:\n      pop\n      jumpi(tag_2, lt(calldatasize, 0x04))\n      shr(0xe0, calldataload(0x00))\n      dup1\n      0x6b318270\n      eq\n      tag_3\n      jumpi\n      dup1\n      0xbb5852c7\n      eq\n      tag_4\n      jumpi\n      dup1\n      0xe82938b3\n      eq\n      tag_5\n      jumpi\n    tag_2:\n      0x00\n      dup1\n      revert\n        /* \"fileVerifier.sol\":234:516  function addFile(bytes32 _fileHash) external returns (bool) {... */\n    tag_3:\n      tag_6\n      0x04\n      dup1\n      calldatasize\n      sub\n      dup2\n      add\n      swap1\n      tag_7\n      swap2\n      swap1\n      tag_8\n      jump\t// in\n    tag_7:\n      tag_9\n      jump\t// in\n    tag_6:\n      mload(0x40)\n      tag_10\n      swap2\n      swap1\n      tag_11\n      jump\t// in\n    tag_10:\n      mload(0x40)\n      dup1\n      swap2\n      sub\n      swap1\n      return\n        /* \"fileVerifier.sol\":522:760  function verifyFileOrigin(... */\n    tag_4:\n      tag_12\n      0x04\n      dup1\n      calldatasize\n      sub\n      dup2\n      add\n      swap1\n      tag_13\n      swap2\n      swap1\n      tag_14\n      jump\t// in\n    tag_13:\n      tag_15\n      jump\t// in\n    tag_12:\n      mload(0x40)\n      tag_16\n      swap2\n      swap1\n      tag_11\n      jump\t// in\n    tag_16:\n      mload(0x40)\n      dup1\n      swap2\n      sub\n      swap1\n      return\n        /* \"fileVerifier.sol\":766:979  function getFileOrigin(bytes32 _fileHash) external view returns (address) {... */\n    tag_5:\n      tag_17\n      0x04\n      dup1\n      calldatasize\n      sub\n      dup2\n      add\n      swap1\n      tag_18\n      swap2\n      swap1\n      tag_8\n      jump\t// in\n    tag_18:\n      tag_19\n      jump\t// in\n    tag_17:\n      mload(0x40)\n      tag_20\n      swap2\n      swap1\n      tag_21\n      jump\t// in\n    tag_20:\n      mload(0x40)\n      dup1\n      swap2\n      sub\n      swap1\n      return\n        /* \"fileVerifier.sol\":234:516  function addFile(bytes32 _fileHash) external returns (bool) {... */\n    tag_9:\n        /* \"fileVerifier.sol\":288:292  bool */\n      0x00\n        /* \"fileVerifier.sol\":313:327  hashTometaData */\n      dup1\n        /* \"fileVerifier.sol\":313:338  hashTometaData[_fileHash] */\n      0x00\n        /* \"fileVerifier.sol\":328:337  _fileHash */\n      dup4\n        /* \"fileVerifier.sol\":313:338  hashTometaData[_fileHash] */\n      dup2\n      mstore\n      0x20\n      add\n      swap1\n      dup2\n      mstore\n      0x20\n      add\n      0x00\n      keccak256\n        /* \"fileVerifier.sol\":313:345  hashTometaData[_fileHash].exists */\n      0x02\n      add\n      0x00\n      swap1\n      sload\n      swap1\n      0x0100\n      exp\n      swap1\n      div\n      0xff\n      and\n        /* \"fileVerifier.sol\":312:345  !hashTometaData[_fileHash].exists */\n      iszero\n        /* \"fileVerifier.sol\":304:369  require(!hashTometaData[_fileHash].exists, 'File already exists') */\n      tag_23\n      jumpi\n      mload(0x40)\n      0x08c379a000000000000000000000000000000000000000000000000000000000\n      dup2\n      mstore\n      0x04\n      add\n      tag_24\n      swap1\n      tag_25\n      jump\t// in\n    tag_24:\n      mload(0x40)\n      dup1\n      swap2\n      sub\n      swap1\n      revert\n    tag_23:\n        /* \"fileVerifier.sol\":408:488  metaData(... */\n      mload(0x40)\n      dup1\n      0x60\n      add\n      0x40\n      mstore\n      dup1\n        /* \"fileVerifier.sol\":428:438  msg.sender */\n      caller\n        /* \"fileVerifier.sol\":408:488  metaData(... */\n      0xffffffffffffffffffffffffffffffffffffffff\n      and\n      dup2\n      mstore\n      0x20\n      add\n        /* \"fileVerifier.sol\":450:462  block.number */\n      number\n        /* \"fileVerifier.sol\":408:488  metaData(... */\n      dup2\n      mstore\n      0x20\n      add\n        /* \"fileVerifier.sol\":474:478  true */\n      0x01\n        /* \"fileVerifier.sol\":408:488  metaData(... */\n      iszero\n      iszero\n      dup2\n      mstore\n      pop\n        /* \"fileVerifier.sol\":380:394  hashTometaData */\n      0x00\n        /* \"fileVerifier.sol\":380:405  hashTometaData[_fileHash] */\n      dup1\n        /* \"fileVerifier.sol\":395:404  _fileHash */\n      dup5\n        /* \"fileVerifier.sol\":380:405  hashTometaData[_fileHash] */\n      dup2\n      mstore\n      0x20\n      add\n      swap1\n      dup2\n      mstore\n      0x20\n      add\n      0x00\n      keccak256\n        /* \"fileVerifier.sol\":380:488  hashTometaData[_fileHash] = metaData(... */\n      0x00\n      dup3\n      add\n      mload\n      dup2\n      0x00\n      add\n      exp(0x0100, 0x00)\n      dup2\n      sload\n      dup2\n      0xffffffffffffffffffffffffffffffffffffffff\n      mul\n      not\n      and\n      swap1\n      dup4\n      0xffffffffffffffffffffffffffffffffffffffff\n      and\n      mul\n      or\n      swap1\n      sstore\n      pop\n      0x20\n      dup3\n      add\n      mload\n      dup2\n      0x01\n      add\n      sstore\n      0x40\n      dup3\n      add\n      mload\n      dup2\n      0x02\n      add\n      exp(0x0100, 0x00)\n      dup2\n      sload\n      dup2\n      0xff\n      mul\n      not\n      and\n      swap1\n      dup4\n      iszero\n      iszero\n      mul\n      or\n      swap1\n      sstore\n      pop\n      swap1\n      pop\n      pop\n        /* \"fileVerifier.sol\":505:509  true */\n      0x01\n        /* \"fileVerifier.sol\":498:509  return true */\n      swap1\n      pop\n        /* \"fileVerifier.sol\":234:516  function addFile(bytes32 _fileHash) external returns (bool) {... */\n      swap2\n      swap1\n      pop\n      jump\t// out\n        /* \"fileVerifier.sol\":522:760  function verifyFileOrigin(... */\n    tag_15:\n        /* \"fileVerifier.sol\":632:636  bool */\n      0x00\n        /* \"fileVerifier.sol\":646:666  metaData memory file */\n      dup1\n        /* \"fileVerifier.sol\":669:683  hashTometaData */\n      0x00\n        /* \"fileVerifier.sol\":669:694  hashTometaData[_fileHash] */\n      dup1\n        /* \"fileVerifier.sol\":684:693  _fileHash */\n      dup5\n        /* \"fileVerifier.sol\":669:694  hashTometaData[_fileHash] */\n      dup2\n      mstore\n      0x20\n      add\n      swap1\n      dup2\n      mstore\n      0x20\n      add\n      0x00\n      keccak256\n        /* \"fileVerifier.sol\":646:694  metaData memory file = hashTometaData[_fileHash] */\n      mload(0x40)\n      dup1\n      0x60\n      add\n      0x40\n      mstore\n      swap1\n      dup2\n      0x00\n      dup3\n      add\n      0x00\n      swap1\n      sload\n      swap1\n      0x0100\n      exp\n      swap1\n      div\n      0xffffffffffffffffffffffffffffffffffffffff\n      and\n      0xffffffffffffffffffffffffffffffffffffffff\n      and\n      0xffffffffffffffffffffffffffffffffffffffff\n      and\n      dup2\n      mstore\n      0x20\n      add\n      0x01\n      dup3\n      add\n      sload\n      dup2\n      mstore\n      0x20\n      add\n      0x02\n      dup3\n      add\n      0x00\n      swap1\n      sload\n      swap1\n      0x0100\n      exp\n      swap1\n      div\n      0xff\n      and\n      iszero\n      iszero\n      iszero\n      iszero\n      dup2\n      mstore\n      pop\n      pop\n      swap1\n      pop\n        /* \"fileVerifier.sol\":709:713  file */\n      dup1\n        /* \"fileVerifier.sol\":709:720  file.exists */\n      0x40\n      add\n      mload\n        /* \"fileVerifier.sol\":709:753  file.exists && _originAddress == file.origin */\n      dup1\n      iszero\n      tag_27\n      jumpi\n      pop\n        /* \"fileVerifier.sol\":742:746  file */\n      dup1\n        /* \"fileVerifier.sol\":742:753  file.origin */\n      0x00\n      add\n      mload\n        /* \"fileVerifier.sol\":724:753  _originAddress == file.origin */\n      0xffffffffffffffffffffffffffffffffffffffff\n      and\n        /* \"fileVerifier.sol\":724:738  _originAddress */\n      dup5\n        /* \"fileVerifier.sol\":724:753  _originAddress == file.origin */\n      0xffffffffffffffffffffffffffffffffffffffff\n      and\n      eq\n        /* \"fileVerifier.sol\":709:753  file.exists && _originAddress == file.origin */\n    tag_27:\n        /* \"fileVerifier.sol\":702:753  return file.exists && _originAddress == file.origin */\n      swap2\n      pop\n      pop\n        /* \"fileVerifier.sol\":522:760  function verifyFileOrigin(... */\n      swap3\n      swap2\n      pop\n      pop\n      jump\t// out\n        /* \"fileVerifier.sol\":766:979  function getFileOrigin(bytes32 _fileHash) external view returns (address) {... */\n    tag_19:\n        /* \"fileVerifier.sol\":831:838  address */\n      0x00\n        /* \"fileVerifier.sol\":848:868  metaData memory file */\n      dup1\n        /* \"fileVerifier.sol\":871:885  hashTometaData */\n      0x00\n        /* \"fileVerifier.sol\":871:896  hashTometaData[_fileHash] */\n      dup1\n        /* \"fileVerifier.sol\":886:895  _fileHash */\n      dup5\n        /* \"fileVerifier.sol\":871:896  hashTometaData[_fileHash] */\n      dup2\n      mstore\n      0x20\n      add\n      swap1\n      dup2\n      mstore\n      0x20\n      add\n      0x00\n      keccak256\n        /* \"fileVerifier.sol\":848:896  metaData memory file = hashTometaData[_fileHash] */\n      mload(0x40)\n      dup1\n      0x60\n      add\n      0x40\n      mstore\n      swap1\n      dup2\n      0x00\n      dup3\n      add\n      0x00\n      swap1\n      sload\n      swap1\n      0x0100\n      exp\n      swap1\n      div\n      0xffffffffffffffffffffffffffffffffffffffff\n      and\n      0xffffffffffffffffffffffffffffffffffffffff\n      and\n      0xffffffffffffffffffffffffffffffffffffffff\n      and\n      dup2\n      mstore\n      0x20\n      add\n      0x01\n      dup3\n      add\n      sload\n      dup2\n      mstore\n      0x20\n      add\n      0x02\n      dup3\n      add\n      0x00\n      swap1\n      sload\n      swap1\n      0x0100\n      exp\n      swap1\n      div\n      0xff\n      and\n      iszero\n      iszero\n      iszero\n      iszero\n      dup2\n      mstore\n      pop\n      pop\n      swap1\n      pop\n        /* \"fileVerifier.sol\":912:916  file */\n      dup1\n        /* \"fileVerifier.sol\":912:923  file.exists */\n      0x40\n      add\n      mload\n        /* \"fileVerifier.sol\":904:946  require(file.exists, 'File doesnt exists') */\n      tag_29\n      jumpi\n      mload(0x40)\n      0x08c379a000000000000000000000000000000000000000000000000000000000\n      dup2\n      mstore\n      0x04\n      add\n      tag_30\n      swap1\n      tag_31\n      jump\t// in\n    tag_30:\n      mload(0x40)\n      dup1\n      swap2\n      sub\n      swap1\n      revert\n    tag_29:\n        /* \"fileVerifier.sol\":961:965  file */\n      dup1\n        /* \"fileVerifier.sol\":961:972  file.origin */\n      0x00\n      add\n      mload\n        /* \"fileVerifier.sol\":954:972  return file.origin */\n      swap2\n      pop\n      pop\n        /* \"fileVerifier.sol\":766:979  function getFileOrigin(bytes32 _fileHash) external view returns (address) {... */\n      swap2\n      swap1\n      pop\n      jump\t// out\n        /* \"#utility.yul\":7:146   */\n    tag_33:\n        /* \"#utility.yul\":53:58   */\n      0x00\n        /* \"#utility.yul\":91:97   */\n      dup2\n        /* \"#utility.yul\":78:98   */\n      calldataload\n        /* \"#utility.yul\":69:98   */\n      swap1\n      pop\n        /* \"#utility.yul\":107:140   */\n      tag_35\n        /* \"#utility.yul\":134:139   */\n      dup2\n        /* \"#utility.yul\":107:140   */\n      tag_36\n      jump\t// in\n    tag_35:\n        /* \"#utility.yul\":7:146   */\n      swap3\n      swap2\n      pop\n      pop\n      jump\t// out\n        /* \"#utility.yul\":152:291   */\n    tag_37:\n        /* \"#utility.yul\":198:203   */\n      0x00\n        /* \"#utility.yul\":236:242   */\n      dup2\n        /* \"#utility.yul\":223:243   */\n      calldataload\n        /* \"#utility.yul\":214:243   */\n      swap1\n      pop\n        /* \"#utility.yul\":252:285   */\n      tag_39\n        /* \"#utility.yul\":279:284   */\n      dup2\n        /* \"#utility.yul\":252:285   */\n      tag_40\n      jump\t// in\n    tag_39:\n        /* \"#utility.yul\":152:291   */\n      swap3\n      swap2\n      pop\n      pop\n      jump\t// out\n        /* \"#utility.yul\":297:771   */\n    tag_14:\n        /* \"#utility.yul\":365:371   */\n      0x00\n        /* \"#utility.yul\":373:379   */\n      dup1\n        /* \"#utility.yul\":422:424   */\n      0x40\n        /* \"#utility.yul\":410:419   */\n      dup4\n        /* \"#utility.yul\":401:408   */\n      dup6\n        /* \"#utility.yul\":397:420   */\n      sub\n        /* \"#utility.yul\":393:425   */\n      slt\n        /* \"#utility.yul\":390:509   */\n      iszero\n      tag_42\n      jumpi\n        /* \"#utility.yul\":428:507   */\n      tag_43\n      tag_44\n      jump\t// in\n    tag_43:\n        /* \"#utility.yul\":390:509   */\n    tag_42:\n        /* \"#utility.yul\":548:549   */\n      0x00\n        /* \"#utility.yul\":573:626   */\n      tag_45\n        /* \"#utility.yul\":618:625   */\n      dup6\n        /* \"#utility.yul\":609:615   */\n      dup3\n        /* \"#utility.yul\":598:607   */\n      dup7\n        /* \"#utility.yul\":594:616   */\n      add\n        /* \"#utility.yul\":573:626   */\n      tag_33\n      jump\t// in\n    tag_45:\n        /* \"#utility.yul\":563:626   */\n      swap3\n      pop\n        /* \"#utility.yul\":519:636   */\n      pop\n        /* \"#utility.yul\":675:677   */\n      0x20\n        /* \"#utility.yul\":701:754   */\n      tag_46\n        /* \"#utility.yul\":746:753   */\n      dup6\n        /* \"#utility.yul\":737:743   */\n      dup3\n        /* \"#utility.yul\":726:735   */\n      dup7\n        /* \"#utility.yul\":722:744   */\n      add\n        /* \"#utility.yul\":701:754   */\n      tag_37\n      jump\t// in\n    tag_46:\n        /* \"#utility.yul\":691:754   */\n      swap2\n      pop\n        /* \"#utility.yul\":646:764   */\n      pop\n        /* \"#utility.yul\":297:771   */\n      swap3\n      pop\n      swap3\n      swap1\n      pop\n      jump\t// out\n        /* \"#utility.yul\":777:1106   */\n    tag_8:\n        /* \"#utility.yul\":836:842   */\n      0x00\n        /* \"#utility.yul\":885:887   */\n      0x20\n        /* \"#utility.yul\":873:882   */\n      dup3\n        /* \"#utility.yul\":864:871   */\n      dup5\n        /* \"#utility.yul\":860:883   */\n      sub\n        /* \"#utility.yul\":856:888   */\n      slt\n        /* \"#utility.yul\":853:972   */\n      iszero\n      tag_48\n      jumpi\n        /* \"#utility.yul\":891:970   */\n      tag_49\n      tag_44\n      jump\t// in\n    tag_49:\n        /* \"#utility.yul\":853:972   */\n    tag_48:\n        /* \"#utility.yul\":1011:1012   */\n      0x00\n        /* \"#utility.yul\":1036:1089   */\n      tag_50\n        /* \"#utility.yul\":1081:1088   */\n      dup5\n        /* \"#utility.yul\":1072:1078   */\n      dup3\n        /* \"#utility.yul\":1061:1070   */\n      dup6\n        /* \"#utility.yul\":1057:1079   */\n      add\n        /* \"#utility.yul\":1036:1089   */\n      tag_37\n      jump\t// in\n    tag_50:\n        /* \"#utility.yul\":1026:1089   */\n      swap2\n      pop\n        /* \"#utility.yul\":982:1099   */\n      pop\n        /* \"#utility.yul\":777:1106   */\n      swap3\n      swap2\n      pop\n      pop\n      jump\t// out\n        /* \"#utility.yul\":1112:1230   */\n    tag_51:\n        /* \"#utility.yul\":1199:1223   */\n      tag_53\n        /* \"#utility.yul\":1217:1222   */\n      dup2\n        /* \"#utility.yul\":1199:1223   */\n      tag_54\n      jump\t// in\n    tag_53:\n        /* \"#utility.yul\":1194:1197   */\n      dup3\n        /* \"#utility.yul\":1187:1224   */\n      mstore\n        /* \"#utility.yul\":1112:1230   */\n      pop\n      pop\n      jump\t// out\n        /* \"#utility.yul\":1236:1345   */\n    tag_55:\n        /* \"#utility.yul\":1317:1338   */\n      tag_57\n        /* \"#utility.yul\":1332:1337   */\n      dup2\n        /* \"#utility.yul\":1317:1338   */\n      tag_58\n      jump\t// in\n    tag_57:\n        /* \"#utility.yul\":1312:1315   */\n      dup3\n        /* \"#utility.yul\":1305:1339   */\n      mstore\n        /* \"#utility.yul\":1236:1345   */\n      pop\n      pop\n      jump\t// out\n        /* \"#utility.yul\":1351:1717   */\n    tag_59:\n        /* \"#utility.yul\":1493:1496   */\n      0x00\n        /* \"#utility.yul\":1514:1581   */\n      tag_61\n        /* \"#utility.yul\":1578:1580   */\n      0x12\n        /* \"#utility.yul\":1573:1576   */\n      dup4\n        /* \"#utility.yul\":1514:1581   */\n      tag_62\n      jump\t// in\n    tag_61:\n        /* \"#utility.yul\":1507:1581   */\n      swap2\n      pop\n        /* \"#utility.yul\":1590:1683   */\n      tag_63\n        /* \"#utility.yul\":1679:1682   */\n      dup3\n        /* \"#utility.yul\":1590:1683   */\n      tag_64\n      jump\t// in\n    tag_63:\n        /* \"#utility.yul\":1708:1710   */\n      0x20\n        /* \"#utility.yul\":1703:1706   */\n      dup3\n        /* \"#utility.yul\":1699:1711   */\n      add\n        /* \"#utility.yul\":1692:1711   */\n      swap1\n      pop\n        /* \"#utility.yul\":1351:1717   */\n      swap2\n      swap1\n      pop\n      jump\t// out\n        /* \"#utility.yul\":1723:2089   */\n    tag_65:\n        /* \"#utility.yul\":1865:1868   */\n      0x00\n        /* \"#utility.yul\":1886:1953   */\n      tag_67\n        /* \"#utility.yul\":1950:1952   */\n      0x13\n        /* \"#utility.yul\":1945:1948   */\n      dup4\n        /* \"#utility.yul\":1886:1953   */\n      tag_62\n      jump\t// in\n    tag_67:\n        /* \"#utility.yul\":1879:1953   */\n      swap2\n      pop\n        /* \"#utility.yul\":1962:2055   */\n      tag_68\n        /* \"#utility.yul\":2051:2054   */\n      dup3\n        /* \"#utility.yul\":1962:2055   */\n      tag_69\n      jump\t// in\n    tag_68:\n        /* \"#utility.yul\":2080:2082   */\n      0x20\n        /* \"#utility.yul\":2075:2078   */\n      dup3\n        /* \"#utility.yul\":2071:2083   */\n      add\n        /* \"#utility.yul\":2064:2083   */\n      swap1\n      pop\n        /* \"#utility.yul\":1723:2089   */\n      swap2\n      swap1\n      pop\n      jump\t// out\n        /* \"#utility.yul\":2095:2317   */\n    tag_21:\n        /* \"#utility.yul\":2188:2192   */\n      0x00\n        /* \"#utility.yul\":2226:2228   */\n      0x20\n        /* \"#utility.yul\":2215:2224   */\n      dup3\n        /* \"#utility.yul\":2211:2229   */\n      add\n        /* \"#utility.yul\":2203:2229   */\n      swap1\n      pop\n        /* \"#utility.yul\":2239:2310   */\n      tag_71\n        /* \"#utility.yul\":2307:2308   */\n      0x00\n        /* \"#utility.yul\":2296:2305   */\n      dup4\n        /* \"#utility.yul\":2292:2309   */\n      add\n        /* \"#utility.yul\":2283:2289   */\n      dup5\n        /* \"#utility.yul\":2239:2310   */\n      tag_51\n      jump\t// in\n    tag_71:\n        /* \"#utility.yul\":2095:2317   */\n      swap3\n      swap2\n      pop\n      pop\n      jump\t// out\n        /* \"#utility.yul\":2323:2533   */\n    tag_11:\n        /* \"#utility.yul\":2410:2414   */\n      0x00\n        /* \"#utility.yul\":2448:2450   */\n      0x20\n        /* \"#utility.yul\":2437:2446   */\n      dup3\n        /* \"#utility.yul\":2433:2451   */\n      add\n        /* \"#utility.yul\":2425:2451   */\n      swap1\n      pop\n        /* \"#utility.yul\":2461:2526   */\n      tag_73\n        /* \"#utility.yul\":2523:2524   */\n      0x00\n        /* \"#utility.yul\":2512:2521   */\n      dup4\n        /* \"#utility.yul\":2508:2525   */\n      add\n        /* \"#utility.yul\":2499:2505   */\n      dup5\n        /* \"#utility.yul\":2461:2526   */\n      tag_55\n      jump\t// in\n    tag_73:\n        /* \"#utility.yul\":2323:2533   */\n      swap3\n      swap2\n      pop\n      pop\n      jump\t// out\n        /* \"#utility.yul\":2539:2958   */\n    tag_31:\n        /* \"#utility.yul\":2705:2709   */\n      0x00\n        /* \"#utility.yul\":2743:2745   */\n      0x20\n        /* \"#utility.yul\":2732:2741   */\n      dup3\n        /* \"#utility.yul\":2728:2746   */\n      add\n        /* \"#utility.yul\":2720:2746   */\n      swap1\n      pop\n        /* \"#utility.yul\":2792:2801   */\n      dup2\n        /* \"#utility.yul\":2786:2790   */\n      dup2\n        /* \"#utility.yul\":2782:2802   */\n      sub\n        /* \"#utility.yul\":2778:2779   */\n      0x00\n        /* \"#utility.yul\":2767:2776   */\n      dup4\n        /* \"#utility.yul\":2763:2780   */\n      add\n        /* \"#utility.yul\":2756:2803   */\n      mstore\n        /* \"#utility.yul\":2820:2951   */\n      tag_75\n        /* \"#utility.yul\":2946:2950   */\n      dup2\n        /* \"#utility.yul\":2820:2951   */\n      tag_59\n      jump\t// in\n    tag_75:\n        /* \"#utility.yul\":2812:2951   */\n      swap1\n      pop\n        /* \"#utility.yul\":2539:2958   */\n      swap2\n      swap1\n      pop\n      jump\t// out\n        /* \"#utility.yul\":2964:3383   */\n    tag_25:\n        /* \"#utility.yul\":3130:3134   */\n      0x00\n        /* \"#utility.yul\":3168:3170   */\n      0x20\n        /* \"#utility.yul\":3157:3166   */\n      dup3\n        /* \"#utility.yul\":3153:3171   */\n      add\n        /* \"#utility.yul\":3145:3171   */\n      swap1\n      pop\n        /* \"#utility.yul\":3217:3226   */\n      dup2\n        /* \"#utility.yul\":3211:3215   */\n      dup2\n        /* \"#utility.yul\":3207:3227   */\n      sub\n        /* \"#utility.yul\":3203:3204   */\n      0x00\n        /* \"#utility.yul\":3192:3201   */\n      dup4\n        /* \"#utility.yul\":3188:3205   */\n      add\n        /* \"#utility.yul\":3181:3228   */\n      mstore\n        /* \"#utility.yul\":3245:3376   */\n      tag_77\n        /* \"#utility.yul\":3371:3375   */\n      dup2\n        /* \"#utility.yul\":3245:3376   */\n      tag_65\n      jump\t// in\n    tag_77:\n        /* \"#utility.yul\":3237:3376   */\n      swap1\n      pop\n        /* \"#utility.yul\":2964:3383   */\n      swap2\n      swap1\n      pop\n      jump\t// out\n        /* \"#utility.yul\":3470:3639   */\n    tag_62:\n        /* \"#utility.yul\":3554:3565   */\n      0x00\n        /* \"#utility.yul\":3588:3594   */\n      dup3\n        /* \"#utility.yul\":3583:3586   */\n      dup3\n        /* \"#utility.yul\":3576:3595   */\n      mstore\n        /* \"#utility.yul\":3628:3632   */\n      0x20\n        /* \"#utility.yul\":3623:3626   */\n      dup3\n        /* \"#utility.yul\":3619:3633   */\n      add\n        /* \"#utility.yul\":3604:3633   */\n      swap1\n      pop\n        /* \"#utility.yul\":3470:3639   */\n      swap3\n      swap2\n      pop\n      pop\n      jump\t// out\n        /* \"#utility.yul\":3645:3741   */\n    tag_54:\n        /* \"#utility.yul\":3682:3689   */\n      0x00\n        /* \"#utility.yul\":3711:3735   */\n      tag_82\n        /* \"#utility.yul\":3729:3734   */\n      dup3\n        /* \"#utility.yul\":3711:3735   */\n      tag_83\n      jump\t// in\n    tag_82:\n        /* \"#utility.yul\":3700:3735   */\n      swap1\n      pop\n        /* \"#utility.yul\":3645:3741   */\n      swap2\n      swap1\n      pop\n      jump\t// out\n        /* \"#utility.yul\":3747:3837   */\n    tag_58:\n        /* \"#utility.yul\":3781:3788   */\n      0x00\n        /* \"#utility.yul\":3824:3829   */\n      dup2\n        /* \"#utility.yul\":3817:3830   */\n      iszero\n        /* \"#utility.yul\":3810:3831   */\n      iszero\n        /* \"#utility.yul\":3799:3831   */\n      swap1\n      pop\n        /* \"#utility.yul\":3747:3837   */\n      swap2\n      swap1\n      pop\n      jump\t// out\n        /* \"#utility.yul\":3843:3920   */\n    tag_85:\n        /* \"#utility.yul\":3880:3887   */\n      0x00\n        /* \"#utility.yul\":3909:3914   */\n      dup2\n        /* \"#utility.yul\":3898:3914   */\n      swap1\n      pop\n        /* \"#utility.yul\":3843:3920   */\n      swap2\n      swap1\n      pop\n      jump\t// out\n        /* \"#utility.yul\":3926:4052   */\n    tag_83:\n        /* \"#utility.yul\":3963:3970   */\n      0x00\n        /* \"#utility.yul\":4003:4045   */\n      0xffffffffffffffffffffffffffffffffffffffff\n        /* \"#utility.yul\":3996:4001   */\n      dup3\n        /* \"#utility.yul\":3992:4046   */\n      and\n        /* \"#utility.yul\":3981:4046   */\n      swap1\n      pop\n        /* \"#utility.yul\":3926:4052   */\n      swap2\n      swap1\n      pop\n      jump\t// out\n        /* \"#utility.yul\":4181:4298   */\n    tag_44:\n        /* \"#utility.yul\":4290:4291   */\n      0x00\n        /* \"#utility.yul\":4287:4288   */\n      dup1\n        /* \"#utility.yul\":4280:4292   */\n      revert\n        /* \"#utility.yul\":4304:4472   */\n    tag_64:\n        /* \"#utility.yul\":4444:4464   */\n      0x46696c6520646f65736e74206578697374730000000000000000000000000000\n        /* \"#utility.yul\":4440:4441   */\n      0x00\n        /* \"#utility.yul\":4432:4438   */\n      dup3\n        /* \"#utility.yul\":4428:4442   */\n      add\n        /* \"#utility.yul\":4421:4465   */\n      mstore\n        /* \"#utility.yul\":4304:4472   */\n      pop\n      jump\t// out\n        /* \"#utility.yul\":4478:4647   */\n    tag_69:\n        /* \"#utility.yul\":4618:4639   */\n      0x46696c6520616c72656164792065786973747300000000000000000000000000\n        /* \"#utility.yul\":4614:4615   */\n      0x00\n        /* \"#utility.yul\":4606:4612   */\n      dup3\n        /* \"#utility.yul\":4602:4616   */\n      add\n        /* \"#utility.yul\":4595:4640   */\n      mstore\n        /* \"#utility.yul\":4478:4647   */\n      pop\n      jump\t// out\n        /* \"#utility.yul\":4653:4775   */\n    tag_36:\n        /* \"#utility.yul\":4726:4750   */\n      tag_94\n        /* \"#utility.yul\":4744:4749   */\n      dup2\n        /* \"#utility.yul\":4726:4750   */\n      tag_54\n      jump\t// in\n    tag_94:\n        /* \"#utility.yul\":4719:4724   */\n      dup2\n        /* \"#utility.yul\":4716:4751   */\n      eq\n        /* \"#utility.yul\":4706:4769   */\n      tag_95\n      jumpi\n        /* \"#utility.yul\":4765:4766   */\n      0x00\n        /* \"#utility.yul\":4762:4763   */\n      dup1\n        /* \"#utility.yul\":4755:4767   */\n      revert\n        /* \"#utility.yul\":4706:4769   */\n    tag_95:\n        /* \"#utility.yul\":4653:4775   */\n      pop\n      jump\t// out\n        /* \"#utility.yul\":4781:4903   */\n    tag_40:\n        /* \"#utility.yul\":4854:4878   */\n      tag_97\n        /* \"#utility.yul\":4872:4877   */\n      dup2\n        /* \"#utility.yul\":4854:4878   */\n      tag_85\n      jump\t// in\n    tag_97:\n        /* \"#utility.yul\":4847:4852   */\n      dup2\n        /* \"#utility.yul\":4844:4879   */\n      eq\n        /* \"#utility.yul\":4834:4897   */\n      tag_98\n      jumpi\n        /* \"#utility.yul\":4893:4894   */\n      0x00\n        /* \"#utility.yul\":4890:4891   */\n      dup1\n        /* \"#utility.yul\":4883:4895   */\n      revert\n        /* \"#utility.yul\":4834:4897   */\n    tag_98:\n        /* \"#utility.yul\":4781:4903   */\n      pop\n      jump\t// out\n\n    auxdata: 0xa2646970667358221220a0622eb69a60d90d24587b06466436239a6d716da488a9ed54920028672638eb64736f6c63430008070033\n}\n",
				"bytecode": {
					"linkReferences": {},
					"object": "608060405234801561001057600080fd5b50610657806100206000396000f3fe608060405234801561001057600080fd5b50600436106100415760003560e01c80636b31827014610046578063bb5852c714610076578063e82938b3146100a6575b600080fd5b610060600480360381019061005b919061043c565b6100d6565b60405161006d91906104e8565b60405180910390f35b610090600480360381019061008b91906103fc565b6101fe565b60405161009d91906104e8565b60405180910390f35b6100c060048036038101906100bb919061043c565b6102e4565b6040516100cd91906104cd565b60405180910390f35b600080600083815260200190815260200160002060020160009054906101000a900460ff161561013b576040517f08c379a000000000000000000000000000000000000000000000000000000000815260040161013290610523565b60405180910390fd5b60405180606001604052803373ffffffffffffffffffffffffffffffffffffffff1681526020014381526020016001151581525060008084815260200190815260200160002060008201518160000160006101000a81548173ffffffffffffffffffffffffffffffffffffffff021916908373ffffffffffffffffffffffffffffffffffffffff1602179055506020820151816001015560408201518160020160006101000a81548160ff02191690831515021790555090505060019050919050565b6000806000808481526020019081526020016000206040518060600160405290816000820160009054906101000a900473ffffffffffffffffffffffffffffffffffffffff1673ffffffffffffffffffffffffffffffffffffffff1673ffffffffffffffffffffffffffffffffffffffff168152602001600182015481526020016002820160009054906101000a900460ff1615151515815250509050806040015180156102db5750806000015173ffffffffffffffffffffffffffffffffffffffff168473ffffffffffffffffffffffffffffffffffffffff16145b91505092915050565b6000806000808481526020019081526020016000206040518060600160405290816000820160009054906101000a900473ffffffffffffffffffffffffffffffffffffffff1673ffffffffffffffffffffffffffffffffffffffff1673ffffffffffffffffffffffffffffffffffffffff168152602001600182015481526020016002820160009054906101000a900460ff161515151581525050905080604001516103c5576040517f08c379a00000000000000000000000000000000000000000000000000000000081526004016103bc90610503565b60405180910390fd5b8060000151915050919050565b6000813590506103e1816105f3565b92915050565b6000813590506103f68161060a565b92915050565b600080604083850312156104135761041261059c565b5b6000610421858286016103d2565b9250506020610432858286016103e7565b9150509250929050565b6000602082840312156104525761045161059c565b5b6000610460848285016103e7565b91505092915050565b61047281610554565b82525050565b61048181610566565b82525050565b6000610494601283610543565b915061049f826105a1565b602082019050919050565b60006104b7601383610543565b91506104c2826105ca565b602082019050919050565b60006020820190506104e26000830184610469565b92915050565b60006020820190506104fd6000830184610478565b92915050565b6000602082019050818103600083015261051c81610487565b9050919050565b6000602082019050818103600083015261053c816104aa565b9050919050565b600082825260208201905092915050565b600061055f8261057c565b9050919050565b60008115159050919050565b6000819050919050565b600073ffffffffffffffffffffffffffffffffffffffff82169050919050565b600080fd5b7f46696c6520646f65736e74206578697374730000000000000000000000000000600082015250565b7f46696c6520616c72656164792065786973747300000000000000000000000000600082015250565b6105fc81610554565b811461060757600080fd5b50565b61061381610572565b811461061e57600080fd5b5056fea2646970667358221220a0622eb69a60d90d24587b06466436239a6d716da488a9ed54920028672638eb64736f6c63430008070033",
					"opcodes": "PUSH1 0x80 PUSH1 0x40 MSTORE CALLVALUE DUP1 ISZERO PUSH2 0x10 JUMPI PUSH1 0x0 DUP1 REVERT JUMPDEST POP PUSH2 0x657 DUP1 PUSH2 0x20 PUSH1 0x0 CODECOPY PUSH1 0x0 RETURN INVALID PUSH1 0x80 PUSH1 0x40 MSTORE CALLVALUE DUP1 ISZERO PUSH2 0x10 JUMPI PUSH1 0x0 DUP1 REVERT JUMPDEST POP PUSH1 0x4 CALLDATASIZE LT PUSH2 0x41 JUMPI PUSH1 0x0 CALLDATALOAD PUSH1 0xE0 SHR DUP1 PUSH4 0x6B318270 EQ PUSH2 0x46 JUMPI DUP1 PUSH4 0xBB5852C7 EQ PUSH2 0x76 JUMPI DUP1 PUSH4 0xE82938B3 EQ PUSH2 0xA6 JUMPI JUMPDEST PUSH1 0x0 DUP1 REVERT JUMPDEST PUSH2 0x60 PUSH1 0x4 DUP1 CALLDATASIZE SUB DUP2 ADD SWAP1 PUSH2 0x5B SWAP2 SWAP1 PUSH2 0x43C JUMP JUMPDEST PUSH2 0xD6 JUMP JUMPDEST PUSH1 0x40 MLOAD PUSH2 0x6D SWAP2 SWAP1 PUSH2 0x4E8 JUMP JUMPDEST PUSH1 0x40 MLOAD DUP1 SWAP2 SUB SWAP1 RETURN JUMPDEST PUSH2 0x90 PUSH1 0x4 DUP1 CALLDATASIZE SUB DUP2 ADD SWAP1 PUSH2 0x8B SWAP2 SWAP1 PUSH2 0x3FC JUMP JUMPDEST PUSH2 0x1FE JUMP JUMPDEST PUSH1 0x40 MLOAD PUSH2 0x9D SWAP2 SWAP1 PUSH2 0x4E8 JUMP JUMPDEST PUSH1 0x40 MLOAD DUP1 SWAP2 SUB SWAP1 RETURN JUMPDEST PUSH2 0xC0 PUSH1 0x4 DUP1 CALLDATASIZE SUB DUP2 ADD SWAP1 PUSH2 0xBB SWAP2 SWAP1 PUSH2 0x43C JUMP JUMPDEST PUSH2 0x2E4 JUMP JUMPDEST PUSH1 0x40 MLOAD PUSH2 0xCD SWAP2 SWAP1 PUSH2 0x4CD JUMP JUMPDEST PUSH1 0x40 MLOAD DUP1 SWAP2 SUB SWAP1 RETURN JUMPDEST PUSH1 0x0 DUP1 PUSH1 0x0 DUP4 DUP2 MSTORE PUSH1 0x20 ADD SWAP1 DUP2 MSTORE PUSH1 0x20 ADD PUSH1 0x0 KECCAK256 PUSH1 0x2 ADD PUSH1 0x0 SWAP1 SLOAD SWAP1 PUSH2 0x100 EXP SWAP1 DIV PUSH1 0xFF AND ISZERO PUSH2 0x13B JUMPI PUSH1 0x40 MLOAD PUSH32 0x8C379A000000000000000000000000000000000000000000000000000000000 DUP2 MSTORE PUSH1 0x4 ADD PUSH2 0x132 SWAP1 PUSH2 0x523 JUMP JUMPDEST PUSH1 0x40 MLOAD DUP1 SWAP2 SUB SWAP1 REVERT JUMPDEST PUSH1 0x40 MLOAD DUP1 PUSH1 0x60 ADD PUSH1 0x40 MSTORE DUP1 CALLER PUSH20 0xFFFFFFFFFFFFFFFFFFFFFFFFFFFFFFFFFFFFFFFF AND DUP2 MSTORE PUSH1 0x20 ADD NUMBER DUP2 MSTORE PUSH1 0x20 ADD PUSH1 0x1 ISZERO ISZERO DUP2 MSTORE POP PUSH1 0x0 DUP1 DUP5 DUP2 MSTORE PUSH1 0x20 ADD SWAP1 DUP2 MSTORE PUSH1 0x20 ADD PUSH1 0x0 KECCAK256 PUSH1 0x0 DUP3 ADD MLOAD DUP2 PUSH1 0x0 ADD PUSH1 0x0 PUSH2 0x100 EXP DUP2 SLOAD DUP2 PUSH20 0xFFFFFFFFFFFFFFFFFFFFFFFFFFFFFFFFFFFFFFFF MUL NOT AND SWAP1 DUP4 PUSH20 0xFFFFFFFFFFFFFFFFFFFFFFFFFFFFFFFFFFFFFFFF AND MUL OR SWAP1 SSTORE POP PUSH1 0x20 DUP3 ADD MLOAD DUP2 PUSH1 0x1 ADD SSTORE PUSH1 0x40 DUP3 ADD MLOAD DUP2 PUSH1 0x2 ADD PUSH1 0x0 PUSH2 0x100 EXP DUP2 SLOAD DUP2 PUSH1 0xFF MUL NOT AND SWAP1 DUP4 ISZERO ISZERO MUL OR SWAP1 SSTORE POP SWAP1 POP POP PUSH1 0x1 SWAP1 POP SWAP2 SWAP1 POP JUMP JUMPDEST PUSH1 0x0 DUP1 PUSH1 0x0 DUP1 DUP5 DUP2 MSTORE PUSH1 0x20 ADD SWAP1 DUP2 MSTORE PUSH1 0x20 ADD PUSH1 0x0 KECCAK256 PUSH1 0x40 MLOAD DUP1 PUSH1 0x60 ADD PUSH1 0x40 MSTORE SWAP1 DUP2 PUSH1 0x0 DUP3 ADD PUSH1 0x0 SWAP1 SLOAD SWAP1 PUSH2 0x100 EXP SWAP1 DIV PUSH20 0xFFFFFFFFFFFFFFFFFFFFFFFFFFFFFFFFFFFFFFFF AND PUSH20 0xFFFFFFFFFFFFFFFFFFFFFFFFFFFFFFFFFFFFFFFF AND PUSH20 0xFFFFFFFFFFFFFFFFFFFFFFFFFFFFFFFFFFFFFFFF AND DUP2 MSTORE PUSH1 0x20 ADD PUSH1 0x1 DUP3 ADD SLOAD DUP2 MSTORE PUSH1 0x20 ADD PUSH1 0x2 DUP3 ADD PUSH1 0x0 SWAP1 SLOAD SWAP1 PUSH2 0x100 EXP SWAP1 DIV PUSH1 0xFF AND ISZERO ISZERO ISZERO ISZERO DUP2 MSTORE POP POP SWAP1 POP DUP1 PUSH1 0x40 ADD MLOAD DUP1 ISZERO PUSH2 0x2DB JUMPI POP DUP1 PUSH1 0x0 ADD MLOAD PUSH20 0xFFFFFFFFFFFFFFFFFFFFFFFFFFFFFFFFFFFFFFFF AND DUP5 PUSH20 0xFFFFFFFFFFFFFFFFFFFFFFFFFFFFFFFFFFFFFFFF AND EQ JUMPDEST SWAP2 POP POP SWAP3 SWAP2 POP POP JUMP JUMPDEST PUSH1 0x0 DUP1 PUSH1 0x0 DUP1 DUP5 DUP2 MSTORE PUSH1 0x20 ADD SWAP1 DUP2 MSTORE PUSH1 0x20 ADD PUSH1 0x0 KECCAK256 PUSH1 0x40 MLOAD DUP1 PUSH1 0x60 ADD PUSH1 0x40 MSTORE SWAP1 DUP2 PUSH1 0x0 DUP3 ADD PUSH1 0x0 SWAP1 SLOAD SWAP1 PUSH2 0x100 EXP SWAP1 DIV PUSH20 0xFFFFFFFFFFFFFFFFFFFFFFFFFFFFFFFFFFFFFFFF AND PUSH20 0xFFFFFFFFFFFFFFFFFFFFFFFFFFFFFFFFFFFFFFFF AND PUSH20 0xFFFFFFFFFFFFFFFFFFFFFFFFFFFFFFFFFFFFFFFF AND DUP2 MSTORE PUSH1 0x20 ADD PUSH1 0x1 DUP3 ADD SLOAD DUP2 MSTORE PUSH1 0x20 ADD PUSH1 0x2 DUP3 ADD PUSH1 0x0 SWAP1 SLOAD SWAP1 PUSH2 0x100 EXP SWAP1 DIV PUSH1 0xFF AND ISZERO ISZERO ISZERO ISZERO DUP2 MSTORE POP POP SWAP1 POP DUP1 PUSH1 0x40 ADD MLOAD PUSH2 0x3C5 JUMPI PUSH1 0x40 MLOAD PUSH32 0x8C379A000000000000000000000000000000000000000000000000000000000 DUP2 MSTORE PUSH1 0x4 ADD PUSH2 0x3BC SWAP1 PUSH2 0x503 JUMP JUMPDEST PUSH1 0x40 MLOAD DUP1 SWAP2 SUB SWAP1 REVERT JUMPDEST DUP1 PUSH1 0x0 ADD MLOAD SWAP2 POP POP SWAP2 SWAP1 POP JUMP JUMPDEST PUSH1 0x0 DUP2 CALLDATALOAD SWAP1 POP PUSH2 0x3E1 DUP2 PUSH2 0x5F3 JUMP JUMPDEST SWAP3 SWAP2 POP POP JUMP JUMPDEST PUSH1 0x0 DUP2 CALLDATALOAD SWAP1 POP PUSH2 0x3F6 DUP2 PUSH2 0x60A JUMP JUMPDEST SWAP3 SWAP2 POP POP JUMP JUMPDEST PUSH1 0x0 DUP1 PUSH1 0x40 DUP4 DUP6 SUB SLT ISZERO PUSH2 0x413 JUMPI PUSH2 0x412 PUSH2 0x59C JUMP JUMPDEST JUMPDEST PUSH1 0x0 PUSH2 0x421 DUP6 DUP3 DUP7 ADD PUSH2 0x3D2 JUMP JUMPDEST SWAP3 POP POP PUSH1 0x20 PUSH2 0x432 DUP6 DUP3 DUP7 ADD PUSH2 0x3E7 JUMP JUMPDEST SWAP2 POP POP SWAP3 POP SWAP3 SWAP1 POP JUMP JUMPDEST PUSH1 0x0 PUSH1 0x20 DUP3 DUP5 SUB SLT ISZERO PUSH2 0x452 JUMPI PUSH2 0x451 PUSH2 0x59C JUMP JUMPDEST JUMPDEST PUSH1 0x0 PUSH2 0x460 DUP5 DUP3 DUP6 ADD PUSH2 0x3E7 JUMP JUMPDEST SWAP2 POP POP SWAP3 SWAP2 POP POP JUMP JUMPDEST PUSH2 0x472 DUP2 PUSH2 0x554 JUMP JUMPDEST DUP3 MSTORE POP POP JUMP JUMPDEST PUSH2 0x481 DUP2 PUSH2 0x566 JUMP JUMPDEST DUP3 MSTORE POP POP JUMP JUMPDEST PUSH1 0x0 PUSH2 0x494 PUSH1 0x12 DUP4 PUSH2 0x543 JUMP JUMPDEST SWAP2 POP PUSH2 0x49F DUP3 PUSH2 0x5A1 JUMP JUMPDEST PUSH1 0x20 DUP3 ADD SWAP1 POP SWAP2 SWAP1 POP JUMP JUMPDEST PUSH1 0x0 PUSH2 0x4B7 PUSH1 0x13 DUP4 PUSH2 0x543 JUMP JUMPDEST SWAP2 POP PUSH2 0x4C2 DUP3 PUSH2 0x5CA JUMP JUMPDEST PUSH1 0x20 DUP3 ADD SWAP1 POP SWAP2 SWAP1 POP JUMP JUMPDEST PUSH1 0x0 PUSH1 0x20 DUP3 ADD SWAP1 POP PUSH2 0x4E2 PUSH1 0x0 DUP4 ADD DUP5 PUSH2 0x469 JUMP JUMPDEST SWAP3 SWAP2 POP POP JUMP JUMPDEST PUSH1 0x0 PUSH1 0x20 DUP3 ADD SWAP1 POP PUSH2 0x4FD PUSH1 0x0 DUP4 ADD DUP5 PUSH2 0x478 JUMP JUMPDEST SWAP3 SWAP2 POP POP JUMP JUMPDEST PUSH1 0x0 PUSH1 0x20 DUP3 ADD SWAP1 POP DUP2 DUP2 SUB PUSH1 0x0 DUP4 ADD MSTORE PUSH2 0x51C DUP2 PUSH2 0x487 JUMP JUMPDEST SWAP1 POP SWAP2 SWAP1 POP JUMP JUMPDEST PUSH1 0x0 PUSH1 0x20 DUP3 ADD SWAP1 POP DUP2 DUP2 SUB PUSH1 0x0 DUP4 ADD MSTORE PUSH2 0x53C DUP2 PUSH2 0x4AA JUMP JUMPDEST SWAP1 POP SWAP2 SWAP1 POP JUMP JUMPDEST PUSH1 0x0 DUP3 DUP3 MSTORE PUSH1 0x20 DUP3 ADD SWAP1 POP SWAP3 SWAP2 POP POP JUMP JUMPDEST PUSH1 0x0 PUSH2 0x55F DUP3 PUSH2 0x57C JUMP JUMPDEST SWAP1 POP SWAP2 SWAP1 POP JUMP JUMPDEST PUSH1 0x0 DUP2 ISZERO ISZERO SWAP1 POP SWAP2 SWAP1 POP JUMP JUMPDEST PUSH1 0x0 DUP2 SWAP1 POP SWAP2 SWAP1 POP JUMP JUMPDEST PUSH1 0x0 PUSH20 0xFFFFFFFFFFFFFFFFFFFFFFFFFFFFFFFFFFFFFFFF DUP3 AND SWAP1 POP SWAP2 SWAP1 POP JUMP JUMPDEST PUSH1 0x0 DUP1 REVERT JUMPDEST PUSH32 0x46696C6520646F65736E74206578697374730000000000000000000000000000 PUSH1 0x0 DUP3 ADD MSTORE POP JUMP JUMPDEST PUSH32 0x46696C6520616C72656164792065786973747300000000000000000000000000 PUSH1 0x0 DUP3 ADD MSTORE POP JUMP JUMPDEST PUSH2 0x5FC DUP2 PUSH2 0x554 JUMP JUMPDEST DUP2 EQ PUSH2 0x607 JUMPI PUSH1 0x0 DUP1 REVERT JUMPDEST POP JUMP JUMPDEST PUSH2 0x613 DUP2 PUSH2 0x572 JUMP JUMPDEST DUP2 EQ PUSH2 0x61E JUMPI PUSH1 0x0 DUP1 REVERT JUMPDEST POP JUMP INVALID LOG2 PUSH5 0x6970667358 0x22 SLT KECCAK256 LOG0 PUSH3 0x2EB69A PUSH1 0xD9 0xD 0x24 PC PUSH28 0x6466436239A6D716DA488A9ED54920028672638EB64736F6C634300 ADDMOD SMOD STOP CALLER "
				},
				"gasEstimates": {
					"creation": {
						"codeDepositCost": "324600",
						"executionCost": "362",
						"totalCost": "324962"
					},
					"external": {
						"addFile(bytes32)": "73683",
						"getFileOrigin(bytes32)": "7326",
						"verifyFileOrigin(address,bytes32)": "7475"
					}
				},
				"methodIdentifiers": {
					"addFile(bytes32)": "6b318270",
					"getFileOrigin(bytes32)": "e82938b3",
					"verifyFileOrigin(address,bytes32)": "bb5852c7"
				}
			},
			"storageLayout": {
				"storage": [
					{
						"astId": 13,
						"contract": "fileVerifier.sol:fileVerifier",
						"label": "hashTometaData",
						"offset": 0,
						"slot": "0",
						"type": "t_mapping(t_bytes32,t_struct(metaData)8_storage)"
					}
				],
				"types": {
					"t_address": {
						"encoding": "inplace",
						"label": "address",
						"numberOfBytes": "20"
					},
					"t_bool": {
						"encoding": "inplace",
						"label": "bool",
						"numberOfBytes": "1"
					},
					"t_bytes32": {
						"encoding": "inplace",
						"label": "bytes32",
						"numberOfBytes": "32"
					},
					"t_mapping(t_bytes32,t_struct(metaData)8_storage)": {
						"encoding": "mapping",
						"key": "t_bytes32",
						"label": "mapping(bytes32 => struct fileVerifier.metaData)",
						"numberOfBytes": "32",
						"value": "t_struct(metaData)8_storage"
					},
					"t_struct(metaData)8_storage": {
						"encoding": "inplace",
						"label": "struct fileVerifier.metaData",
						"members": [
							{
								"astId": 3,
								"contract": "fileVerifier.sol:fileVerifier",
								"label": "origin",
								"offset": 0,
								"slot": "0",
								"type": "t_address"
							},
							{
								"astId": 5,
								"contract": "fileVerifier.sol:fileVerifier",
								"label": "blockNumber",
								"offset": 0,
								"slot": "1",
								"type": "t_uint256"
							},
							{
								"astId": 7,
								"contract": "fileVerifier.sol:fileVerifier",
								"label": "exists",
								"offset": 0,
								"slot": "2",
								"type": "t_bool"
							}
						],
						"numberOfBytes": "96"
					},
					"t_uint256": {
						"encoding": "inplace",
						"label": "uint256",
						"numberOfBytes": "32"
					}
				}
			},
			"userdoc": {
				"kind": "user",
				"methods": {},
				"version": 1
			}
		}
	}
}